:1006E000042C0000014D04180000014D0C38C0F925
:1006F000A4B0999282F88090BFFF02300000021CE3
:10070000000002280000023600000222000002263B
:06071000000002200000C1
:0907EE00C294C296D285D2872282
:0907F700C290C292D281D2832289
:09080000D294D296C285C287226F
:09080900D290D292C281C2832276
:09081200C294C296C285C287227D
:09081B00C290C292C281C2832284
:0E07AC008E248F258C1E8D1F1208090207EE69
:0E07BA008E248F258C1E8D1F1207F70208005B
:0A000E008E248F2512080002081B43
:0A07E4008E1E8F1F12081202080972
:0E07C8008E248F258E1E8F1F12080002080936
:0E07D6008E248F258E1E8F1F1207EE0207F74E
:10071700D3E5279525E52695245006D291D29380D7
:1007270004C291C293D3E521951FE520951E50057C
:0A073700D295D29722C295C29722F4
:10076100D2A5000000000000000000000000000011
:0A07710000000000000000C2A522F5
:1006520030A4FDD28C20A4FDC28CAF8CEFFEAD8AFB
:100662007C00E42DF52BEC3EF52AE4F58CF58AAC02
:100672002AAD2B1201C97B9A7A9979D9783F120057
:100682001EE4FBFA79C878421201271202028F2F68
:070692008E2E8D2D8C2C2211
:10077B00D284000000000000000000000000000018
:0A078B0000000000000000C28422FC
:100699003082FDD28C2082FDC28CAF8CEFFEAD8AF8
:1006A9007C00E42DF52BEC3EF52AE4F58CF58AACBB
:1006B9002AAD2B1201C97B9A7A9979D9783F120010
:1006C9001EE4FBFA79C878421201271202028F1B35
:0706D9008E1A8D198C182206
:1005F300E5314530700C74382532F8E6547FF580C8
:10060300800C74322531F8E62438F8E6F580E531BC
:10061300640245307008D2A1D2A2C2A3801CE53186
:10062300640145307008D2A1C2A2D2A3800CE53187
:1006330045307006C2A1D2A2D2A3E5312401FFE462
:0F0643003530FE7C007D031202D88C308D3122C1
:10079500758911758DFF758B9CE4F58CF58AD28E64
:0707A500D2A9D2ABD2AF22B2
:03001B000205706B
:10057000C0E0C0F0C0D075D010758DFF758B9C05A4
:1005800029E529700205280537E53770020536058B
:100590001DE51D7002051C0523E52370020522C31D
:1005A000E51D9414E51C94004006751C00751D00A3
:1005B000C3E523940AE52294004031752200752397
:1005C00000120717E5272401FFE43526FE7C007D95
:1005D0000A1202838C268D27E5212401FFE43520B1
:1005E000FE7C007D0A1202838C208D21D0D0D0F0B9
:0305F000D0E03226
:03000B00020003ED
:0100030032CA
:10074100E4FDFCC3ED9FEC9E5015E4FAFB0BBB00EE
:0F075100010ABA07F8BBD0F50DBD00010C80E41A
:010760002276
:10032D00E4F544F548F547F546F545F549F54AF543
:10033D004BF54CF54DF54E120795C3E5379464E535
:10034D00369400400612077B120699C3E52994C81E
:10035D00E528940040E4054DE54D7002054C12076B
:10036D0061120652E4F528F529F536F5377F09FEB9
:10037D00FDFCAB1BAA1AA919A818D312031C400324
:10038D0002049030B717E47F0FFEFDFCAB2FAA2EB1
:10039D00A92DA82CC312031C400302043930B71633
:1003AD00E47F0FFEFDFCAB2FAA2EA92DA82CC312A6
:1003BD00031C5002805020B716E47F0FFEFDFCABEE
:1003CD002FAA2EA92DA82CC312031C4002805D203C
:1003DD00B71DE47F0FFEFDFCAB2FAA2EA92DA82C77
:1003ED00C312031C50097F027E001207D680E03035
:1003FD00B723E47F0FFEFDFCAB2FAA2EA92DA82C51
:10040D00C312031C500F7D057C007F057E00120773
:10041D00AC7F14802420B727E47F0FFEFDFCAB2FAB
:10042D00AA2EA92DA82CC312031C40137D057C00F8
:10043D007F057E001207BA7F121207410203472083
:10044D00B703020347E47F0FFEFDFCAB2FAA2EA9D5
:10045D002DA82CC312031C5003020347E54B7D0549
:10046D007C007F057E0020E0071207BA7F12800511
:10047D001207AC7F14120741054BE54B7002054A7C
:10048D00020347E47F05FEFDFCAB2FAA2EA92DA884
:10049D002CC312031C500A7F057E001207E40203D1
:1004AD0047E47F0AFEFDFCAB2FAA2EA92DA82CC375
:1004BD0012031C4018E47F0FFEFDFCA82CD3120381
:1004CD001C500A7F057E0012000E0203477F027E3C
:0704DD00001207C8020347EB
:10001E00EC4D6011E8497017ED33EC3304600DE4DC
:10002E00FCFFFEFD22E933E8330470F802026E1283
:10003E00023958046009E4CC248150062850090284
:10004E000278284003020275C0E0EB4A7044B98082
:10005E0006D0E0FB020264EF4E701CBD8008EBFF81
:10006E00EAFEE9FD80EBE98DF0A4FEE5F002010762
:10007E00E9CDF9EAFEEBFFEF89F0A4FCE5F0CE89BD
:10008E00F0A42EFFE435F0CD89F0A42DFEE435F07A
:10009E008067EF4E7005BD80D780C3EF8BF0A4ACA8
:1000AE00F0EE8BF0A42CFCE435F0F8EF8AF0A42CE3
:1000BE00E5F038FCE433CB8DF0A42CFCE5F03BF8F6
:1000CE00EE8AF0A42CFCE5F038F8E433CF89F0A4E6
:1000DE002CFCE5F038CF3400CE89F0A42FFFE5F0EC
:1000EE003EFEE433C98DF0A42EFEE5F039CD8AF044
:1000FE00A42FFFE5F03EFEE43DFD33D0E0FB5007BC
:10010E000BBB000F020278EC2CFCEF33FFEE33FE3C
:06011E00ED33FD0202506A
:10012400020278EC5D046005E85904700302026E73
:10013400120239580460F6EC4860F2EC7004FDFEDB
:10014400FF22C860DB2481C85009C39860025006AE
:100154000202759850CAF582E9294B4A7005AB82B0
:1001640002026475F0007C1A7880C3EF9BEE9AED6E
:1001740099400DC3EF9BFFEE9AFEED99FDE842F026
:10018400DC23ACF0D0E0FFD0E0FED0E0FDAB822079
:10019400E7101BEB60BAEC2CFCEF33FFEE33FEED03
:1001A40033FD020250E803F830E705C0F075F000B3
:1001B400EF2FFFEE33FEED33FD40B830E7C280AAE7
:1001C40075F020800E75F010800575F0087D007EB6
:1001D400007F003392D530D50312030EEC33401068
:1001E400EF33FFEE33FEED33FDEC33FCD5F0ED22BF
:0E01F400E5F0247EA2D513CC92E7CDCEFF22FB
:10020200EDD2E7CD33EC3392D524814006E4FFFEF4
:10021200FDFC22FCE4CFCECDCC24E0501174FF8053
:10022200EDC3CC13CCCD13CDCE13CECF13CF0470F0
:07023200F030D5DE02030EDF
:10023900E9D2E7C933E833F892D5EDD2E7CD33EC0B
:0702490033FC5002B2D52284
:10025000EC30E7100FBF000C0EBE00080DBD00040F
:100260000BEB6014A2D5EB13FCED92E7FD2274FFBB
:10027000FCFDFEFF22E480F8A2D574FF13FC7D8014
:03028000E480EF28
:030000000204E413
:0C04E400787FE4F6D8FD75814E02052BF0
:10028300BC000BBE0029EF8DF084FFADF022E4CC5F
:10029300F875F008EF2FFFEE33FEEC33FCEE9DEC28
:1002A300984005FCEE9DFE0FD5F0E9E4CEFD22ED6E
:1002B300F8F5F0EE8420D21CFEADF075F008EF2FB8
:1002C300FFED33FD4007985006D5F0F222C398FDA9
:0502D3000FD5F0EA2246
:1002D800C2D5EC30E709B2D5E4C39DFDE49CFCEE41
:1002E80030E715B2D5E4C39FFFE49EFE120283C334
:1002F800E49DFDE49CFC800312028330D507C3E42F
:060308009FFFE49EFE22AF
:0E030E00C3E49FFFE49EFEE49DFDE49CFC2200
:10031C00EB9FF5F0EA9E42F0E99D42F0E89C45F037
:01032C0022AE
:1004F00002032DE493A3F8E493A34003F68001F2F2
:1005000008DFF48029E493A3F85407240CC8C3330C
:10051000C4540F4420C8834004F456800146F6DFDB
:10052000E4800B01020408102040809006E0E47E85
:10053000019360BCA3FF543F30E509541FFEE493D0
:10054000A360010ECF54C025E060A840B8E493A397
:10055000FAE493A3F8E493A3C8C582C8CAC583CAC2
:10056000F0A3C8C582C8CAC583CADFE9DEE780BE7A
:0107160000E2
:00000001FF
