:1006F10004280000014D0C32C0F9A4B0999282F88F
:100701008090BFFF022C00000218000002240000AC
:0C071100021E000002220000021C00007A
:09000E00C294C296D285D2872269
:0907D100C290C292D281D28322AF
:0907DA00D294D296C285C2872296
:0907E300D290D292C281C283229D
:0E0799008E208F218C1A8D1B1207E302000E9A
:0E07A7008E208F218C1A8D1B1207D10207DACB
:0E07B5008E208F218E1A8F1B1207DA0207E3A7
:0E07C3008E208F218E1A8F1B12000E0207D17E
:10071E00D3E5239521E52295205006D291D29380E0
:10072E0004C291C293D3E51D951BE51C951A500585
:0A073E00D295D29722C295C29722ED
:10076800D2A500000000000000000000000000000A
:0A07780000000000000000C2A522EE
:1003FB0030A4FDD28C20A4FDC28CAF8CEFFEAD8A55
:10040B007C00E42DF527EC3EF526E4F58CF58AAC63
:10041B0026AD271201C97B9A7A9979D9783F1200B8
:10042B001EE4FBFA79C878421201271202028F2BC5
:10043B008E2A8D298C28E47BE87A03F9F812034A7B
:10044B00AC00AD01AE02AF03E47B64FAF9F8120322
:10045B004A8F2EE47BE87A03F9F8AF2BAE2AAD294D
:10046B00AC2812034AAC00AD01AE02AF03E47B64CF
:10047B00FAF9F812034AAC00AD01AE02AF03E47B0C
:10048B000AFAF9F812034A8F2FE47BE87A03F9F89A
:10049B00AF2BAE2AAD29AC2812034AAC00AD01AE8E
:1004AB0002AF03E47B64FAF9F812034AAC00AD0126
:1004BB00AE02AF03E47B0AFAF9F812034AAF038FDB
:0204CB003022DD
:10069200E52D452C700C7432252EF8E6547FF5803A
:1006A200800C742E252DF8E62432F8E6F580E52D2F
:1006B2006402452C7008D2A1D2A2C2A3801CE52DEF
:1006C2006401452C7008D2A1C2A2D2A3800CE52DF0
:1006D200452C7006C2A1D2A2D2A3E52D2401FFE4CB
:0F06E200352CFE7C007D031202D88C2C8D2D222E
:10078200758911758DFF758B9CE4F58CF58AD28E77
:07079200D2A9D2ABD2AF22C5
:03001B00020617C3
:10061700C0E0C0F0C0D075D010758DFF758B9C05FC
:1006270025E525700205240519E519700205180549
:100637001FE51F7002051EC3E5199414E518940001
:100647004006751800751900C3E51F940AE51E9446
:10065700004031751E00751F0012071EE523240197
:10066700FFE43522FE7C007D0A1202838C228D2353
:10067700E51D2401FFE4351CFE7C007D0A12028380
:0B0687008C1C8D1DD0D0D0F0D0E032D4
:03000B00020003ED
:0100030032CA
:10074800E4FDFCC3ED9FEC9E5015E4FAFB0BBB00E7
:0F075800010ABA07F8BBD0F50DBD00010C80E413
:01076700226F
:1004CD00E4F53E753F617540A8F544F543F542F5F9
:1004DD0041F545F546120782C3E52594E8E52494D8
:1004ED0003500302057C1207681203FBE47F06FE2E
:1004FD00FDFCAB2BAA2AA929A828D31203EA506820
:10050D0030B72930B426E5467D057C007F057E0099
:10051D0020E0071207A77F1C80051207997F1E1286
:10052D0007480546E54670470545804330B712201C
:10053D00B40F7D057C007F057E001207997F1E801C
:10054D001320B71530B4127D057C007F057E001297
:10055D0007A77F1C120748801620B71320B4107F01
:10056D00027E001207C380F17F027E001207B5855F
:0E057D002B44852A438529428528410204E546
:10001E00EC4D6011E8497017ED33EC3304600DE4DC
:10002E00FCFFFEFD22E933E8330470F802026E1283
:10003E00023958046009E4CC248150062850090284
:10004E000278284003020275C0E0EB4A7044B98082
:10005E0006D0E0FB020264EF4E701CBD8008EBFF81
:10006E00EAFEE9FD80EBE98DF0A4FEE5F002010762
:10007E00E9CDF9EAFEEBFFEF89F0A4FCE5F0CE89BD
:10008E00F0A42EFFE435F0CD89F0A42DFEE435F07A
:10009E008067EF4E7005BD80D780C3EF8BF0A4ACA8
:1000AE00F0EE8BF0A42CFCE435F0F8EF8AF0A42CE3
:1000BE00E5F038FCE433CB8DF0A42CFCE5F03BF8F6
:1000CE00EE8AF0A42CFCE5F038F8E433CF89F0A4E6
:1000DE002CFCE5F038CF3400CE89F0A42FFFE5F0EC
:1000EE003EFEE433C98DF0A42EFEE5F039CD8AF044
:1000FE00A42FFFE5F03EFEE43DFD33D0E0FB5007BC
:10010E000BBB000F020278EC2CFCEF33FFEE33FE3C
:06011E00ED33FD0202506A
:10012400020278EC5D046005E85904700302026E73
:10013400120239580460F6EC4860F2EC7004FDFEDB
:10014400FF22C860DB2481C85009C39860025006AE
:100154000202759850CAF582E9294B4A7005AB82B0
:1001640002026475F0007C1A7880C3EF9BEE9AED6E
:1001740099400DC3EF9BFFEE9AFEED99FDE842F026
:10018400DC23ACF0D0E0FFD0E0FED0E0FDAB822079
:10019400E7101BEB60BAEC2CFCEF33FFEE33FEED03
:1001A40033FD020250E803F830E705C0F075F000B3
:1001B400EF2FFFEE33FEED33FD40B830E7C280AAE7
:1001C40075F020800E75F010800575F0087D007EB6
:1001D400007F003392D530D5031203DCEC3340109A
:1001E400EF33FFEE33FEED33FDEC33FCD5F0ED22BF
:0E01F400E5F0247EA2D513CC92E7CDCEFF22FB
:10020200EDD2E7CD33EC3392D524814006E4FFFEF4
:10021200FDFC22FCE4CFCECDCC24E0501174FF8053
:10022200EDC3CC13CCCD13CDCE13CECF13CF0470F0
:07023200F030D5DE0203DC11
:10023900E9D2E7C933E833F892D5EDD2E7CD33EC0B
:0702490033FC5002B2D52284
:10025000EC30E7100FBF000C0EBE00080DBD00040F
:100260000BEB6014A2D5EB13FCED92E7FD2274FFBB
:10027000FCFDFEFF22E480F8A2D574FF13FC7D8014
:03028000E480EF28
:0300000002058B6B
:0C058B00787FE4F6D8FD7581460205D2A9
:10028300BC000BBE0029EF8DF084FFADF022E4CC5F
:10029300F875F008EF2FFFEE33FEEC33FCEE9DEC28
:1002A300984005FCEE9DFE0FD5F0E9E4CEFD22ED6E
:1002B300F8F5F0EE8420D21CFEADF075F008EF2FB8
:1002C300FFED33FD4007985006D5F0F222C398FDA9
:0502D3000FD5F0EA2246
:1002D800C2D5EC30E709B2D5E4C39DFDE49CFCEE41
:1002E80030E715B2D5E4C39FFFE49EFE120283C334
:1002F800E49DFDE49CFC800312028330D507C3E42F
:060308009FFFE49EFE22AF
:10030E0075F008758200EF2FFFEE33FECD33CDCCA6
:10031E0033CCC58233C5829BED9AEC99E582984029
:10032E000CF582EE9BFEED9AFDEC99FC0FD5F0D606
:10033E00E4CEFBE4CDFAE4CCF9A88222B800C1B930
:10034E000059BA002DEC8BF084CFCECDFCE5F0CB6E
:10035E00F97818EF2FFFEE33FEED33FDEC33FCEBA7
:10036E0033FB10D703994004EB99FB0FD8E5E4F962
:10037E00FA227818EF2FFFEE33FEED33FDEC33FC4F
:10038E00C933C910D7059BE99A4007EC9BFCE99A43
:10039E00F90FD8E0E4C9FAE4CCFB2275F010EF2F88
:1003AE00FFEE33FEED33FDCC33CCC833C810D70788
:1003BE009BEC9AE899400AED9BFDEC9AFCE899F8C3
:0E03CE000FD5F0DAE4CDFBE4CCFAE4C8F92256
:0E03DC00C3E49FFFE49EFEE49DFDE49CFC2232
:1003EA00EB9FF5F0EA9E42F0E99D42F0E89C45F069
:0103FA0022E0
:100597000204CDE493A3F8E493A34003F68001F2A9
:1005A70008DFF48029E493A3F85407240CC8C33365
:1005B700C4540F4420C8834004F456800146F6DF34
:1005C700E4800B01020408102040809006F1E47ECD
:1005D700019360BCA3FF543F30E509541FFEE49329
:1005E700A360010ECF54C025E060A840B8E493A3F0
:1005F700FAE493A3F8E493A3C8C582C8CAC583CA1B
:10060700F0A3C8C582C8CAC583CADFE9DEE780BED2
:01071D0000DB
:00000001FF
